{
  "_format": "hh-sol-artifact-1",
  "contractName": "VotingSystem",
  "sourceName": "contracts/VotingSystem.sol",
  "abi": [
    {
      "inputs": [],
      "stateMutability": "nonpayable",
      "type": "constructor"
    },
    {
      "anonymous": false,
      "inputs": [
        {
          "indexed": false,
          "internalType": "uint256",
          "name": "id",
          "type": "uint256"
        },
        {
          "indexed": false,
          "internalType": "string",
          "name": "name",
          "type": "string"
        }
      ],
      "name": "CandidateAdded",
      "type": "event"
    },
    {
      "anonymous": false,
      "inputs": [
        {
          "indexed": false,
          "internalType": "uint256",
          "name": "id",
          "type": "uint256"
        }
      ],
      "name": "CandidateRemoved",
      "type": "event"
    },
    {
      "anonymous": false,
      "inputs": [
        {
          "indexed": false,
          "internalType": "address",
          "name": "voter",
          "type": "address"
        },
        {
          "indexed": false,
          "internalType": "uint256",
          "name": "candidateId",
          "type": "uint256"
        }
      ],
      "name": "VoteCast",
      "type": "event"
    },
    {
      "anonymous": false,
      "inputs": [
        {
          "indexed": false,
          "internalType": "address",
          "name": "voter",
          "type": "address"
        }
      ],
      "name": "VoterAdded",
      "type": "event"
    },
    {
      "anonymous": false,
      "inputs": [
        {
          "indexed": false,
          "internalType": "address",
          "name": "voter",
          "type": "address"
        }
      ],
      "name": "VoterRemoved",
      "type": "event"
    },
    {
      "anonymous": false,
      "inputs": [
        {
          "indexed": false,
          "internalType": "uint256",
          "name": "time",
          "type": "uint256"
        }
      ],
      "name": "VotingEnded",
      "type": "event"
    },
    {
      "anonymous": false,
      "inputs": [
        {
          "indexed": false,
          "internalType": "uint256",
          "name": "time",
          "type": "uint256"
        }
      ],
      "name": "VotingStarted",
      "type": "event"
    },
    {
      "inputs": [
        {
          "internalType": "string",
          "name": "_name",
          "type": "string"
        },
        {
          "internalType": "string",
          "name": "_party",
          "type": "string"
        },
        {
          "internalType": "string",
          "name": "_imageUrl",
          "type": "string"
        }
      ],
      "name": "addCandidate",
      "outputs": [],
      "stateMutability": "nonpayable",
      "type": "function"
    },
    {
      "inputs": [
        {
          "internalType": "address",
          "name": "_voter",
          "type": "address"
        }
      ],
      "name": "addVoter",
      "outputs": [],
      "stateMutability": "nonpayable",
      "type": "function"
    },
    {
      "inputs": [
        {
          "internalType": "uint256",
          "name": "",
          "type": "uint256"
        }
      ],
      "name": "candidates",
      "outputs": [
        {
          "internalType": "uint256",
          "name": "id",
          "type": "uint256"
        },
        {
          "internalType": "string",
          "name": "name",
          "type": "string"
        },
        {
          "internalType": "string",
          "name": "party",
          "type": "string"
        },
        {
          "internalType": "string",
          "name": "imageUrl",
          "type": "string"
        },
        {
          "internalType": "uint256",
          "name": "voteCount",
          "type": "uint256"
        }
      ],
      "stateMutability": "view",
      "type": "function"
    },
    {
      "inputs": [
        {
          "internalType": "uint256",
          "name": "_candidateId",
          "type": "uint256"
        }
      ],
      "name": "castVote",
      "outputs": [],
      "stateMutability": "nonpayable",
      "type": "function"
    },
    {
      "inputs": [
        {
          "internalType": "address",
          "name": "_voter",
          "type": "address"
        }
      ],
      "name": "checkEligibility",
      "outputs": [
        {
          "internalType": "bool",
          "name": "",
          "type": "bool"
        }
      ],
      "stateMutability": "view",
      "type": "function"
    },
    {
      "inputs": [],
      "name": "endVoting",
      "outputs": [],
      "stateMutability": "nonpayable",
      "type": "function"
    },
    {
      "inputs": [],
      "name": "getCandidates",
      "outputs": [
        {
          "components": [
            {
              "internalType": "uint256",
              "name": "id",
              "type": "uint256"
            },
            {
              "internalType": "string",
              "name": "name",
              "type": "string"
            },
            {
              "internalType": "string",
              "name": "party",
              "type": "string"
            },
            {
              "internalType": "string",
              "name": "imageUrl",
              "type": "string"
            },
            {
              "internalType": "uint256",
              "name": "voteCount",
              "type": "uint256"
            }
          ],
          "internalType": "struct VotingSystem.Candidate[]",
          "name": "",
          "type": "tuple[]"
        }
      ],
      "stateMutability": "view",
      "type": "function"
    },
    {
      "inputs": [],
      "name": "owner",
      "outputs": [
        {
          "internalType": "address",
          "name": "",
          "type": "address"
        }
      ],
      "stateMutability": "view",
      "type": "function"
    },
    {
      "inputs": [
        {
          "internalType": "uint256",
          "name": "_id",
          "type": "uint256"
        }
      ],
      "name": "removeCandidate",
      "outputs": [],
      "stateMutability": "nonpayable",
      "type": "function"
    },
    {
      "inputs": [
        {
          "internalType": "address",
          "name": "_voter",
          "type": "address"
        }
      ],
      "name": "removeVoter",
      "outputs": [],
      "stateMutability": "nonpayable",
      "type": "function"
    },
    {
      "inputs": [],
      "name": "startVoting",
      "outputs": [],
      "stateMutability": "nonpayable",
      "type": "function"
    },
    {
      "inputs": [],
      "name": "totalCandidates",
      "outputs": [
        {
          "internalType": "uint256",
          "name": "",
          "type": "uint256"
        }
      ],
      "stateMutability": "view",
      "type": "function"
    },
    {
      "inputs": [],
      "name": "totalVoters",
      "outputs": [
        {
          "internalType": "uint256",
          "name": "",
          "type": "uint256"
        }
      ],
      "stateMutability": "view",
      "type": "function"
    },
    {
      "inputs": [],
      "name": "totalVotes",
      "outputs": [
        {
          "internalType": "uint256",
          "name": "",
          "type": "uint256"
        }
      ],
      "stateMutability": "view",
      "type": "function"
    },
    {
      "inputs": [
        {
          "internalType": "address",
          "name": "",
          "type": "address"
        }
      ],
      "name": "voters",
      "outputs": [
        {
          "internalType": "bool",
          "name": "isRegistered",
          "type": "bool"
        },
        {
          "internalType": "bool",
          "name": "hasVoted",
          "type": "bool"
        }
      ],
      "stateMutability": "view",
      "type": "function"
    },
    {
      "inputs": [],
      "name": "votingActive",
      "outputs": [
        {
          "internalType": "bool",
          "name": "",
          "type": "bool"
        }
      ],
      "stateMutability": "view",
      "type": "function"
    },
    {
      "inputs": [],
      "name": "votingEnd",
      "outputs": [
        {
          "internalType": "uint256",
          "name": "",
          "type": "uint256"
        }
      ],
      "stateMutability": "view",
      "type": "function"
    },
    {
      "inputs": [],
      "name": "votingStart",
      "outputs": [
        {
          "internalType": "uint256",
          "name": "",
          "type": "uint256"
        }
      ],
      "stateMutability": "view",
      "type": "function"
    }
  ],
  "bytecode": "0x608060405234801561001057600080fd5b50336000806101000a81548173ffffffffffffffffffffffffffffffffffffffff021916908373ffffffffffffffffffffffffffffffffffffffff160217905550612030806100606000396000f3fe608060405234801561001057600080fd5b50600436106101165760003560e01c80635f5300ff116100a25780638da5cb5b116100715780638da5cb5b146102af578063a3ec138d146102cd578063ad71f8dc146102fe578063c3403ddf1461031a578063f4ab9adf1461032457610116565b80635f5300ff146102275780637723bafb1461024557806385a386351461027557806386c1ff681461029357610116565b80631ec6b60a116100e95780631ec6b60a146101915780633477ee2e1461019b5780633866965c146101cf5780633eb76b9c146101ed578063408e27271461020957610116565b806306a49fce1461011b57806309e9d7e2146101395780630d15fd7714610155578063101158af14610173575b600080fd5b610123610340565b604051610130919061157d565b60405180910390f35b610153600480360381019061014e91906115df565b6105fa565b005b61015d610773565b60405161016a919061161b565b60405180910390f35b61017b610779565b604051610188919061161b565b60405180910390f35b61019961077f565b005b6101b560048036038101906101b091906115df565b61086a565b6040516101c6959493929190611680565b60405180910390f35b6101d7610a38565b6040516101e4919061161b565b60405180910390f35b610207600480360381019061020291906115df565b610a3e565b005b610211610ce2565b60405161021e9190611703565b60405180910390f35b61022f610cf5565b60405161023c919061161b565b60405180910390f35b61025f600480360381019061025a919061177c565b610cfb565b60405161026c9190611703565b60405180910390f35b61027d610dad565b60405161028a919061161b565b60405180910390f35b6102ad60048036038101906102a8919061177c565b610db3565b005b6102b7610efd565b6040516102c491906117b8565b60405180910390f35b6102e760048036038101906102e2919061177c565b610f21565b6040516102f59291906117d3565b60405180910390f35b61031860048036038101906103139190611931565b610f5f565b005b6103226110dd565b005b61033e6004803603810190610339919061177c565b6111c7565b005b6060600060035467ffffffffffffffff8111156103605761035f611806565b5b60405190808252806020026020018201604052801561039957816020015b610386611302565b81526020019060019003908161037e5790505b509050600080600190505b60035481116105f15760006006600083815260200190815260200160002060000154146105de57600660008281526020019081526020016000206040518060a00160405290816000820154815260200160018201805461040390611a07565b80601f016020809104026020016040519081016040528092919081815260200182805461042f90611a07565b801561047c5780601f106104515761010080835404028352916020019161047c565b820191906000526020600020905b81548152906001019060200180831161045f57829003601f168201915b5050505050815260200160028201805461049590611a07565b80601f01602080910402602001604051908101604052809291908181526020018280546104c190611a07565b801561050e5780601f106104e35761010080835404028352916020019161050e565b820191906000526020600020905b8154815290600101906020018083116104f157829003601f168201915b5050505050815260200160038201805461052790611a07565b80601f016020809104026020016040519081016040528092919081815260200182805461055390611a07565b80156105a05780601f10610575576101008083540402835291602001916105a0565b820191906000526020600020905b81548152906001019060200180831161058357829003601f168201915b505050505081526020016004820154815250508383806105bf90611a67565b9450815181106105d2576105d1611aaf565b5b60200260200101819052505b80806105e990611a67565b9150506103a4565b50819250505090565b60008054906101000a900473ffffffffffffffffffffffffffffffffffffffff1673ffffffffffffffffffffffffffffffffffffffff163373ffffffffffffffffffffffffffffffffffffffff1614610688576040517f08c379a000000000000000000000000000000000000000000000000000000000815260040161067f90611b2a565b60405180910390fd5b8060006006600083815260200190815260200160002060000154036106e2576040517f08c379a00000000000000000000000000000000000000000000000000000000081526004016106d990611b96565b60405180910390fd5b6006600083815260200190815260200160002060008082016000905560018201600061070e9190611331565b60028201600061071e9190611331565b60038201600061072e9190611331565b600482016000905550507f294c5a9bc8a39e6e06502bc8da429980f6c7b0990d75b682c12cb8705e3ace8582604051610767919061161b565b60405180910390a15050565b60055481565b60015481565b60008054906101000a900473ffffffffffffffffffffffffffffffffffffffff1673ffffffffffffffffffffffffffffffffffffffff163373ffffffffffffffffffffffffffffffffffffffff161461080d576040517f08c379a000000000000000000000000000000000000000000000000000000000815260040161080490611b2a565b60405180910390fd5b6001600060146101000a81548160ff021916908315150217905550426001819055507fcf33babc496bb6dc2942b39cb7b75766bbbadf7da50d176ff8c513e991140239600154604051610860919061161b565b60405180910390a1565b600660205280600052604060002060009150905080600001549080600101805461089390611a07565b80601f01602080910402602001604051908101604052809291908181526020018280546108bf90611a07565b801561090c5780601f106108e15761010080835404028352916020019161090c565b820191906000526020600020905b8154815290600101906020018083116108ef57829003601f168201915b50505050509080600201805461092190611a07565b80601f016020809104026020016040519081016040528092919081815260200182805461094d90611a07565b801561099a5780601f1061096f5761010080835404028352916020019161099a565b820191906000526020600020905b81548152906001019060200180831161097d57829003601f168201915b5050505050908060030180546109af90611a07565b80601f01602080910402602001604051908101604052809291908181526020018280546109db90611a07565b8015610a285780601f106109fd57610100808354040283529160200191610a28565b820191906000526020600020905b815481529060010190602001808311610a0b57829003601f168201915b5050505050908060040154905085565b60035481565b600060149054906101000a900460ff16610a8d576040517f08c379a0000000000000000000000000000000000000000000000000000000008152600401610a8490611c02565b60405180910390fd5b600760003373ffffffffffffffffffffffffffffffffffffffff1673ffffffffffffffffffffffffffffffffffffffff16815260200190815260200160002060000160009054906101000a900460ff16610b1c576040517f08c379a0000000000000000000000000000000000000000000000000000000008152600401610b1390611c6e565b60405180910390fd5b600760003373ffffffffffffffffffffffffffffffffffffffff1673ffffffffffffffffffffffffffffffffffffffff16815260200190815260200160002060000160019054906101000a900460ff1615610bac576040517f08c379a0000000000000000000000000000000000000000000000000000000008152600401610ba390611cda565b60405180910390fd5b806000600660008381526020019081526020016000206000015403610c06576040517f08c379a0000000000000000000000000000000000000000000000000000000008152600401610bfd90611b96565b60405180910390fd5b600660008381526020019081526020016000206004016000815480929190610c2d90611a67565b91905055506001600760003373ffffffffffffffffffffffffffffffffffffffff1673ffffffffffffffffffffffffffffffffffffffff16815260200190815260200160002060000160016101000a81548160ff02191690831515021790555060056000815480929190610ca090611a67565b91905055507fa36cc2bebb74db33e9f88110a07ef56e1b31b24b4c4f51b54b1664266e29f45b3383604051610cd6929190611cfa565b60405180910390a15050565b600060149054906101000a900460ff1681565b60045481565b6000600760008373ffffffffffffffffffffffffffffffffffffffff1673ffffffffffffffffffffffffffffffffffffffff16815260200190815260200160002060000160009054906101000a900460ff168015610da65750600760008373ffffffffffffffffffffffffffffffffffffffff1673ffffffffffffffffffffffffffffffffffffffff16815260200190815260200160002060000160019054906101000a900460ff16155b9050919050565b60025481565b60008054906101000a900473ffffffffffffffffffffffffffffffffffffffff1673ffffffffffffffffffffffffffffffffffffffff163373ffffffffffffffffffffffffffffffffffffffff1614610e41576040517f08c379a0000000000000000000000000000000000000000000000000000000008152600401610e3890611b2a565b60405180910390fd5b600760008273ffffffffffffffffffffffffffffffffffffffff1673ffffffffffffffffffffffffffffffffffffffff168152602001908152602001600020600080820160006101000a81549060ff02191690556000820160016101000a81549060ff0219169055505060046000815480929190610ebe90611d23565b91905055507fa14a79af012d1756818f9bd59ccfc9ad185a71df86b9392d9059d9e6faf6d64481604051610ef291906117b8565b60405180910390a150565b60008054906101000a900473ffffffffffffffffffffffffffffffffffffffff1681565b60076020528060005260406000206000915090508060000160009054906101000a900460ff16908060000160019054906101000a900460ff16905082565b60008054906101000a900473ffffffffffffffffffffffffffffffffffffffff1673ffffffffffffffffffffffffffffffffffffffff163373ffffffffffffffffffffffffffffffffffffffff1614610fed576040517f08c379a0000000000000000000000000000000000000000000000000000000008152600401610fe490611b2a565b60405180910390fd5b6003600081548092919061100090611a67565b91905055506040518060a00160405280600354815260200184815260200183815260200182815260200160008152506006600060035481526020019081526020016000206000820151816000015560208201518160010190816110639190611ef8565b5060408201518160020190816110799190611ef8565b50606082015181600301908161108f9190611ef8565b50608082015181600401559050507fe83b2a43e7e82d975c8a0a6d2f045153c869e111136a34d1889ab7b598e396a3600354846040516110d0929190611fca565b60405180910390a1505050565b60008054906101000a900473ffffffffffffffffffffffffffffffffffffffff1673ffffffffffffffffffffffffffffffffffffffff163373ffffffffffffffffffffffffffffffffffffffff161461116b576040517f08c379a000000000000000000000000000000000000000000000000000000000815260040161116290611b2a565b60405180910390fd5b60008060146101000a81548160ff021916908315150217905550426002819055507f81eb7415440ff8e6c8e92606fd3b0e5e6a5c99ea90cdb63b41aec54e897312b36002546040516111bd919061161b565b60405180910390a1565b60008054906101000a900473ffffffffffffffffffffffffffffffffffffffff1673ffffffffffffffffffffffffffffffffffffffff163373ffffffffffffffffffffffffffffffffffffffff1614611255576040517f08c379a000000000000000000000000000000000000000000000000000000000815260040161124c90611b2a565b60405180910390fd5b6001600760008373ffffffffffffffffffffffffffffffffffffffff1673ffffffffffffffffffffffffffffffffffffffff16815260200190815260200160002060000160006101000a81548160ff021916908315150217905550600460008154809291906112c390611a67565b91905055507fa636f4a11e2d3ba7f89d042ecb0a6b886716e98cd49d8fd876ee0f73bced42b8816040516112f791906117b8565b60405180910390a150565b6040518060a0016040528060008152602001606081526020016060815260200160608152602001600081525090565b50805461133d90611a07565b6000825580601f1061134f575061136e565b601f01602090049060005260206000209081019061136d9190611371565b5b50565b5b8082111561138a576000816000905550600101611372565b5090565b600081519050919050565b600082825260208201905092915050565b6000819050602082019050919050565b6000819050919050565b6113cd816113ba565b82525050565b600081519050919050565b600082825260208201905092915050565b60005b8381101561140d5780820151818401526020810190506113f2565b60008484015250505050565b6000601f19601f8301169050919050565b6000611435826113d3565b61143f81856113de565b935061144f8185602086016113ef565b61145881611419565b840191505092915050565b600060a08301600083015161147b60008601826113c4565b5060208301518482036020860152611493828261142a565b915050604083015184820360408601526114ad828261142a565b915050606083015184820360608601526114c7828261142a565b91505060808301516114dc60808601826113c4565b508091505092915050565b60006114f38383611463565b905092915050565b6000602082019050919050565b60006115138261138e565b61151d8185611399565b93508360208202850161152f856113aa565b8060005b8581101561156b578484038952815161154c85826114e7565b9450611557836114fb565b925060208a01995050600181019050611533565b50829750879550505050505092915050565b600060208201905081810360008301526115978184611508565b905092915050565b6000604051905090565b600080fd5b600080fd5b6115bc816113ba565b81146115c757600080fd5b50565b6000813590506115d9816115b3565b92915050565b6000602082840312156115f5576115f46115a9565b5b6000611603848285016115ca565b91505092915050565b611615816113ba565b82525050565b6000602082019050611630600083018461160c565b92915050565b600082825260208201905092915050565b6000611652826113d3565b61165c8185611636565b935061166c8185602086016113ef565b61167581611419565b840191505092915050565b600060a082019050611695600083018861160c565b81810360208301526116a78187611647565b905081810360408301526116bb8186611647565b905081810360608301526116cf8185611647565b90506116de608083018461160c565b9695505050505050565b60008115159050919050565b6116fd816116e8565b82525050565b600060208201905061171860008301846116f4565b92915050565b600073ffffffffffffffffffffffffffffffffffffffff82169050919050565b60006117498261171e565b9050919050565b6117598161173e565b811461176457600080fd5b50565b60008135905061177681611750565b92915050565b600060208284031215611792576117916115a9565b5b60006117a084828501611767565b91505092915050565b6117b28161173e565b82525050565b60006020820190506117cd60008301846117a9565b92915050565b60006040820190506117e860008301856116f4565b6117f560208301846116f4565b9392505050565b600080fd5b600080fd5b7f4e487b7100000000000000000000000000000000000000000000000000000000600052604160045260246000fd5b61183e82611419565b810181811067ffffffffffffffff8211171561185d5761185c611806565b5b80604052505050565b600061187061159f565b905061187c8282611835565b919050565b600067ffffffffffffffff82111561189c5761189b611806565b5b6118a582611419565b9050602081019050919050565b82818337600083830152505050565b60006118d46118cf84611881565b611866565b9050828152602081018484840111156118f0576118ef611801565b5b6118fb8482856118b2565b509392505050565b600082601f830112611918576119176117fc565b5b81356119288482602086016118c1565b91505092915050565b60008060006060848603121561194a576119496115a9565b5b600084013567ffffffffffffffff811115611968576119676115ae565b5b61197486828701611903565b935050602084013567ffffffffffffffff811115611995576119946115ae565b5b6119a186828701611903565b925050604084013567ffffffffffffffff8111156119c2576119c16115ae565b5b6119ce86828701611903565b9150509250925092565b7f4e487b7100000000000000000000000000000000000000000000000000000000600052602260045260246000fd5b60006002820490506001821680611a1f57607f821691505b602082108103611a3257611a316119d8565b5b50919050565b7f4e487b7100000000000000000000000000000000000000000000000000000000600052601160045260246000fd5b6000611a72826113ba565b91507fffffffffffffffffffffffffffffffffffffffffffffffffffffffffffffffff8203611aa457611aa3611a38565b5b600182019050919050565b7f4e487b7100000000000000000000000000000000000000000000000000000000600052603260045260246000fd5b7f4f6e6c792061646d696e20616c6c6f7765640000000000000000000000000000600082015250565b6000611b14601283611636565b9150611b1f82611ade565b602082019050919050565b60006020820190508181036000830152611b4381611b07565b9050919050565b7f43616e646964617465206e6f7420666f756e6400000000000000000000000000600082015250565b6000611b80601383611636565b9150611b8b82611b4a565b602082019050919050565b60006020820190508181036000830152611baf81611b73565b9050919050565b7f566f74696e67206973206e6f7420616374697665000000000000000000000000600082015250565b6000611bec601483611636565b9150611bf782611bb6565b602082019050919050565b60006020820190508181036000830152611c1b81611bdf565b9050919050565b7f4e6f742072656769737465726564000000000000000000000000000000000000600082015250565b6000611c58600e83611636565b9150611c6382611c22565b602082019050919050565b60006020820190508181036000830152611c8781611c4b565b9050919050565b7f416c726561647920766f74656400000000000000000000000000000000000000600082015250565b6000611cc4600d83611636565b9150611ccf82611c8e565b602082019050919050565b60006020820190508181036000830152611cf381611cb7565b9050919050565b6000604082019050611d0f60008301856117a9565b611d1c602083018461160c565b9392505050565b6000611d2e826113ba565b915060008203611d4157611d40611a38565b5b600182039050919050565b60008190508160005260206000209050919050565b60006020601f8301049050919050565b600082821b905092915050565b600060088302611dae7fffffffffffffffffffffffffffffffffffffffffffffffffffffffffffffffff82611d71565b611db88683611d71565b95508019841693508086168417925050509392505050565b6000819050919050565b6000611df5611df0611deb846113ba565b611dd0565b6113ba565b9050919050565b6000819050919050565b611e0f83611dda565b611e23611e1b82611dfc565b848454611d7e565b825550505050565b600090565b611e38611e2b565b611e43818484611e06565b505050565b5b81811015611e6757611e5c600082611e30565b600181019050611e49565b5050565b601f821115611eac57611e7d81611d4c565b611e8684611d61565b81016020851015611e95578190505b611ea9611ea185611d61565b830182611e48565b50505b505050565b600082821c905092915050565b6000611ecf60001984600802611eb1565b1980831691505092915050565b6000611ee88383611ebe565b9150826002028217905092915050565b611f01826113d3565b67ffffffffffffffff811115611f1a57611f19611806565b5b611f248254611a07565b611f2f828285611e6b565b600060209050601f831160018114611f625760008415611f50578287015190505b611f5a8582611edc565b865550611fc2565b601f198416611f7086611d4c565b60005b82811015611f9857848901518255600182019150602085019450602081019050611f73565b86831015611fb55784890151611fb1601f891682611ebe565b8355505b6001600288020188555050505b505050505050565b6000604082019050611fdf600083018561160c565b8181036020830152611ff18184611647565b9050939250505056fea26469706673582212205d12f56e56acb1b84501ad01c4b4b7cfdeb9fc752fc41874130233b71d5a45e464736f6c63430008130033",
  "linkReferences": {},
  "deployedLinkReferences": {}
}