{
  "_format": "hh-sol-artifact-1",
  "contractName": "VotingSystem",
  "sourceName": "contracts/VotingSystem.sol",
  "abi": [
    {
      "inputs": [],
      "stateMutability": "nonpayable",
      "type": "constructor"
    },
    {
      "anonymous": false,
      "inputs": [
        {
          "indexed": false,
          "internalType": "uint256",
          "name": "id",
          "type": "uint256"
        },
        {
          "indexed": false,
          "internalType": "string",
          "name": "name",
          "type": "string"
        }
      ],
      "name": "CandidateAdded",
      "type": "event"
    },
    {
      "anonymous": false,
      "inputs": [
        {
          "indexed": false,
          "internalType": "uint256",
          "name": "id",
          "type": "uint256"
        }
      ],
      "name": "CandidateRemoved",
      "type": "event"
    },
    {
      "anonymous": false,
      "inputs": [
        {
          "indexed": false,
          "internalType": "address",
          "name": "voter",
          "type": "address"
        },
        {
          "indexed": false,
          "internalType": "uint256",
          "name": "candidateId",
          "type": "uint256"
        }
      ],
      "name": "VoteCast",
      "type": "event"
    },
    {
      "anonymous": false,
      "inputs": [
        {
          "indexed": false,
          "internalType": "address",
          "name": "voter",
          "type": "address"
        }
      ],
      "name": "VoterAdded",
      "type": "event"
    },
    {
      "anonymous": false,
      "inputs": [
        {
          "indexed": false,
          "internalType": "address",
          "name": "voter",
          "type": "address"
        }
      ],
      "name": "VoterRemoved",
      "type": "event"
    },
    {
      "anonymous": false,
      "inputs": [
        {
          "indexed": false,
          "internalType": "uint256",
          "name": "time",
          "type": "uint256"
        }
      ],
      "name": "VotingEnded",
      "type": "event"
    },
    {
      "anonymous": false,
      "inputs": [
        {
          "indexed": false,
          "internalType": "uint256",
          "name": "time",
          "type": "uint256"
        }
      ],
      "name": "VotingStarted",
      "type": "event"
    },
    {
      "inputs": [
        {
          "internalType": "string",
          "name": "_name",
          "type": "string"
        },
        {
          "internalType": "string",
          "name": "_party",
          "type": "string"
        },
        {
          "internalType": "string",
          "name": "_imageUrl",
          "type": "string"
        }
      ],
      "name": "addCandidate",
      "outputs": [],
      "stateMutability": "nonpayable",
      "type": "function"
    },
    {
      "inputs": [
        {
          "internalType": "address",
          "name": "_voter",
          "type": "address"
        }
      ],
      "name": "addVoter",
      "outputs": [],
      "stateMutability": "nonpayable",
      "type": "function"
    },
    {
      "inputs": [
        {
          "internalType": "uint256",
          "name": "",
          "type": "uint256"
        }
      ],
      "name": "candidates",
      "outputs": [
        {
          "internalType": "uint256",
          "name": "id",
          "type": "uint256"
        },
        {
          "internalType": "string",
          "name": "name",
          "type": "string"
        },
        {
          "internalType": "string",
          "name": "party",
          "type": "string"
        },
        {
          "internalType": "string",
          "name": "imageUrl",
          "type": "string"
        },
        {
          "internalType": "uint256",
          "name": "voteCount",
          "type": "uint256"
        }
      ],
      "stateMutability": "view",
      "type": "function"
    },
    {
      "inputs": [
        {
          "internalType": "uint256",
          "name": "_candidateId",
          "type": "uint256"
        }
      ],
      "name": "castVote",
      "outputs": [],
      "stateMutability": "nonpayable",
      "type": "function"
    },
    {
      "inputs": [
        {
          "internalType": "address",
          "name": "_voter",
          "type": "address"
        }
      ],
      "name": "checkEligibility",
      "outputs": [
        {
          "internalType": "bool",
          "name": "",
          "type": "bool"
        }
      ],
      "stateMutability": "view",
      "type": "function"
    },
    {
      "inputs": [],
      "name": "endVoting",
      "outputs": [],
      "stateMutability": "nonpayable",
      "type": "function"
    },
    {
      "inputs": [],
      "name": "getCandidates",
      "outputs": [
        {
          "components": [
            {
              "internalType": "uint256",
              "name": "id",
              "type": "uint256"
            },
            {
              "internalType": "string",
              "name": "name",
              "type": "string"
            },
            {
              "internalType": "string",
              "name": "party",
              "type": "string"
            },
            {
              "internalType": "string",
              "name": "imageUrl",
              "type": "string"
            },
            {
              "internalType": "uint256",
              "name": "voteCount",
              "type": "uint256"
            }
          ],
          "internalType": "struct VotingSystem.Candidate[]",
          "name": "",
          "type": "tuple[]"
        }
      ],
      "stateMutability": "view",
      "type": "function"
    },
    {
      "inputs": [
        {
          "internalType": "address",
          "name": "_voter",
          "type": "address"
        }
      ],
      "name": "getVoterDetails",
      "outputs": [
        {
          "internalType": "bool",
          "name": "isRegistered",
          "type": "bool"
        },
        {
          "internalType": "bool",
          "name": "hasVoted",
          "type": "bool"
        }
      ],
      "stateMutability": "view",
      "type": "function"
    },
    {
      "inputs": [],
      "name": "getVoters",
      "outputs": [
        {
          "internalType": "address[]",
          "name": "",
          "type": "address[]"
        }
      ],
      "stateMutability": "view",
      "type": "function"
    },
    {
      "inputs": [],
      "name": "owner",
      "outputs": [
        {
          "internalType": "address",
          "name": "",
          "type": "address"
        }
      ],
      "stateMutability": "view",
      "type": "function"
    },
    {
      "inputs": [
        {
          "internalType": "uint256",
          "name": "_id",
          "type": "uint256"
        }
      ],
      "name": "removeCandidate",
      "outputs": [],
      "stateMutability": "nonpayable",
      "type": "function"
    },
    {
      "inputs": [
        {
          "internalType": "address",
          "name": "_voter",
          "type": "address"
        }
      ],
      "name": "removeVoter",
      "outputs": [],
      "stateMutability": "nonpayable",
      "type": "function"
    },
    {
      "inputs": [],
      "name": "startVoting",
      "outputs": [],
      "stateMutability": "nonpayable",
      "type": "function"
    },
    {
      "inputs": [],
      "name": "totalCandidates",
      "outputs": [
        {
          "internalType": "uint256",
          "name": "",
          "type": "uint256"
        }
      ],
      "stateMutability": "view",
      "type": "function"
    },
    {
      "inputs": [],
      "name": "totalVoters",
      "outputs": [
        {
          "internalType": "uint256",
          "name": "",
          "type": "uint256"
        }
      ],
      "stateMutability": "view",
      "type": "function"
    },
    {
      "inputs": [],
      "name": "totalVotes",
      "outputs": [
        {
          "internalType": "uint256",
          "name": "",
          "type": "uint256"
        }
      ],
      "stateMutability": "view",
      "type": "function"
    },
    {
      "inputs": [
        {
          "internalType": "uint256",
          "name": "",
          "type": "uint256"
        }
      ],
      "name": "voterAddresses",
      "outputs": [
        {
          "internalType": "address",
          "name": "",
          "type": "address"
        }
      ],
      "stateMutability": "view",
      "type": "function"
    },
    {
      "inputs": [
        {
          "internalType": "address",
          "name": "",
          "type": "address"
        }
      ],
      "name": "voters",
      "outputs": [
        {
          "internalType": "bool",
          "name": "isRegistered",
          "type": "bool"
        },
        {
          "internalType": "bool",
          "name": "hasVoted",
          "type": "bool"
        }
      ],
      "stateMutability": "view",
      "type": "function"
    },
    {
      "inputs": [],
      "name": "votingActive",
      "outputs": [
        {
          "internalType": "bool",
          "name": "",
          "type": "bool"
        }
      ],
      "stateMutability": "view",
      "type": "function"
    },
    {
      "inputs": [],
      "name": "votingEnd",
      "outputs": [
        {
          "internalType": "uint256",
          "name": "",
          "type": "uint256"
        }
      ],
      "stateMutability": "view",
      "type": "function"
    },
    {
      "inputs": [],
      "name": "votingStart",
      "outputs": [
        {
          "internalType": "uint256",
          "name": "",
          "type": "uint256"
        }
      ],
      "stateMutability": "view",
      "type": "function"
    }
  ],
  "bytecode": "0x608060405234801561001057600080fd5b50336000806101000a81548173ffffffffffffffffffffffffffffffffffffffff021916908373ffffffffffffffffffffffffffffffffffffffff160217905550612773806100606000396000f3fe608060405234801561001057600080fd5b50600436106101375760003560e01c80637723bafb116100b8578063ad71f8dc1161007c578063ad71f8dc1461031f578063ba71bef01461033b578063c3403ddf1461036c578063cdd7225314610376578063dd0e237314610394578063f4ab9adf146103c457610137565b80637723bafb1461026657806385a386351461029657806386c1ff68146102b45780638da5cb5b146102d0578063a3ec138d146102ee57610137565b80633477ee2e116100ff5780633477ee2e146101bc5780633866965c146101f05780633eb76b9c1461020e578063408e27271461022a5780635f5300ff1461024857610137565b806306a49fce1461013c57806309e9d7e21461015a5780630d15fd7714610176578063101158af146101945780631ec6b60a146101b2575b600080fd5b6101446103e0565b6040516101519190611aa5565b60405180910390f35b610174600480360381019061016f9190611b07565b61069a565b005b61017e610813565b60405161018b9190611b43565b60405180910390f35b61019c610819565b6040516101a99190611b43565b60405180910390f35b6101ba61081f565b005b6101d660048036038101906101d19190611b07565b61090a565b6040516101e7959493929190611ba8565b60405180910390f35b6101f8610ad8565b6040516102059190611b43565b60405180910390f35b61022860048036038101906102239190611b07565b610ade565b005b610232610d82565b60405161023f9190611c2b565b60405180910390f35b610250610d95565b60405161025d9190611b43565b60405180910390f35b610280600480360381019061027b9190611ca4565b610d9b565b60405161028d9190611c2b565b60405180910390f35b61029e610e4d565b6040516102ab9190611b43565b60405180910390f35b6102ce60048036038101906102c99190611ca4565b610e53565b005b6102d86111b9565b6040516102e59190611ce0565b60405180910390f35b61030860048036038101906103039190611ca4565b6111dd565b604051610316929190611cfb565b60405180910390f35b61033960048036038101906103349190611e59565b61121b565b005b61035560048036038101906103509190611ca4565b611399565b604051610363929190611cfb565b60405180910390f35b610374611445565b005b61037e61152f565b60405161038b9190611fbe565b60405180910390f35b6103ae60048036038101906103a99190611b07565b6115bd565b6040516103bb9190611ce0565b60405180910390f35b6103de60048036038101906103d99190611ca4565b6115fc565b005b6060600060035467ffffffffffffffff811115610400576103ff611d2e565b5b60405190808252806020026020018201604052801561043957816020015b61042661182a565b81526020019060019003908161041e5790505b509050600080600190505b600354811161069157600060076000838152602001908152602001600020600001541461067e57600760008281526020019081526020016000206040518060a0016040529081600082015481526020016001820180546104a39061200f565b80601f01602080910402602001604051908101604052809291908181526020018280546104cf9061200f565b801561051c5780601f106104f15761010080835404028352916020019161051c565b820191906000526020600020905b8154815290600101906020018083116104ff57829003601f168201915b505050505081526020016002820180546105359061200f565b80601f01602080910402602001604051908101604052809291908181526020018280546105619061200f565b80156105ae5780601f10610583576101008083540402835291602001916105ae565b820191906000526020600020905b81548152906001019060200180831161059157829003601f168201915b505050505081526020016003820180546105c79061200f565b80601f01602080910402602001604051908101604052809291908181526020018280546105f39061200f565b80156106405780601f1061061557610100808354040283529160200191610640565b820191906000526020600020905b81548152906001019060200180831161062357829003601f168201915b5050505050815260200160048201548152505083838061065f9061206f565b945081518110610672576106716120b7565b5b60200260200101819052505b80806106899061206f565b915050610444565b50819250505090565b60008054906101000a900473ffffffffffffffffffffffffffffffffffffffff1673ffffffffffffffffffffffffffffffffffffffff163373ffffffffffffffffffffffffffffffffffffffff1614610728576040517f08c379a000000000000000000000000000000000000000000000000000000000815260040161071f90612132565b60405180910390fd5b806000600760008381526020019081526020016000206000015403610782576040517f08c379a00000000000000000000000000000000000000000000000000000000081526004016107799061219e565b60405180910390fd5b600760008381526020019081526020016000206000808201600090556001820160006107ae9190611859565b6002820160006107be9190611859565b6003820160006107ce9190611859565b600482016000905550507f294c5a9bc8a39e6e06502bc8da429980f6c7b0990d75b682c12cb8705e3ace85826040516108079190611b43565b60405180910390a15050565b60055481565b60015481565b60008054906101000a900473ffffffffffffffffffffffffffffffffffffffff1673ffffffffffffffffffffffffffffffffffffffff163373ffffffffffffffffffffffffffffffffffffffff16146108ad576040517f08c379a00000000000000000000000000000000000000000000000000000000081526004016108a490612132565b60405180910390fd5b6001600060146101000a81548160ff021916908315150217905550426001819055507fcf33babc496bb6dc2942b39cb7b75766bbbadf7da50d176ff8c513e9911402396001546040516109009190611b43565b60405180910390a1565b60076020528060005260406000206000915090508060000154908060010180546109339061200f565b80601f016020809104026020016040519081016040528092919081815260200182805461095f9061200f565b80156109ac5780601f10610981576101008083540402835291602001916109ac565b820191906000526020600020905b81548152906001019060200180831161098f57829003601f168201915b5050505050908060020180546109c19061200f565b80601f01602080910402602001604051908101604052809291908181526020018280546109ed9061200f565b8015610a3a5780601f10610a0f57610100808354040283529160200191610a3a565b820191906000526020600020905b815481529060010190602001808311610a1d57829003601f168201915b505050505090806003018054610a4f9061200f565b80601f0160208091040260200160405190810160405280929190818152602001828054610a7b9061200f565b8015610ac85780601f10610a9d57610100808354040283529160200191610ac8565b820191906000526020600020905b815481529060010190602001808311610aab57829003601f168201915b5050505050908060040154905085565b60035481565b600060149054906101000a900460ff16610b2d576040517f08c379a0000000000000000000000000000000000000000000000000000000008152600401610b249061220a565b60405180910390fd5b600860003373ffffffffffffffffffffffffffffffffffffffff1673ffffffffffffffffffffffffffffffffffffffff16815260200190815260200160002060000160009054906101000a900460ff16610bbc576040517f08c379a0000000000000000000000000000000000000000000000000000000008152600401610bb390612276565b60405180910390fd5b600860003373ffffffffffffffffffffffffffffffffffffffff1673ffffffffffffffffffffffffffffffffffffffff16815260200190815260200160002060000160019054906101000a900460ff1615610c4c576040517f08c379a0000000000000000000000000000000000000000000000000000000008152600401610c43906122e2565b60405180910390fd5b806000600760008381526020019081526020016000206000015403610ca6576040517f08c379a0000000000000000000000000000000000000000000000000000000008152600401610c9d9061219e565b60405180910390fd5b600760008381526020019081526020016000206004016000815480929190610ccd9061206f565b91905055506001600860003373ffffffffffffffffffffffffffffffffffffffff1673ffffffffffffffffffffffffffffffffffffffff16815260200190815260200160002060000160016101000a81548160ff02191690831515021790555060056000815480929190610d409061206f565b91905055507fa36cc2bebb74db33e9f88110a07ef56e1b31b24b4c4f51b54b1664266e29f45b3383604051610d76929190612302565b60405180910390a15050565b600060149054906101000a900460ff1681565b60045481565b6000600860008373ffffffffffffffffffffffffffffffffffffffff1673ffffffffffffffffffffffffffffffffffffffff16815260200190815260200160002060000160009054906101000a900460ff168015610e465750600860008373ffffffffffffffffffffffffffffffffffffffff1673ffffffffffffffffffffffffffffffffffffffff16815260200190815260200160002060000160019054906101000a900460ff16155b9050919050565b60025481565b60008054906101000a900473ffffffffffffffffffffffffffffffffffffffff1673ffffffffffffffffffffffffffffffffffffffff163373ffffffffffffffffffffffffffffffffffffffff1614610ee1576040517f08c379a0000000000000000000000000000000000000000000000000000000008152600401610ed890612132565b60405180910390fd5b600860008273ffffffffffffffffffffffffffffffffffffffff1673ffffffffffffffffffffffffffffffffffffffff16815260200190815260200160002060000160009054906101000a900460ff16610f70576040517f08c379a0000000000000000000000000000000000000000000000000000000008152600401610f6790612377565b60405180910390fd5b600860008273ffffffffffffffffffffffffffffffffffffffff1673ffffffffffffffffffffffffffffffffffffffff168152602001908152602001600020600080820160006101000a81549060ff02191690556000820160016101000a81549060ff0219169055505060005b600680549050811015611166578173ffffffffffffffffffffffffffffffffffffffff1660068281548110611015576110146120b7565b5b9060005260206000200160009054906101000a900473ffffffffffffffffffffffffffffffffffffffff1673ffffffffffffffffffffffffffffffffffffffff1603611153576006600160068054905061106f9190612397565b815481106110805761107f6120b7565b5b9060005260206000200160009054906101000a900473ffffffffffffffffffffffffffffffffffffffff16600682815481106110bf576110be6120b7565b5b9060005260206000200160006101000a81548173ffffffffffffffffffffffffffffffffffffffff021916908373ffffffffffffffffffffffffffffffffffffffff1602179055506006805480611119576111186123cb565b5b6001900381819060005260206000200160006101000a81549073ffffffffffffffffffffffffffffffffffffffff02191690559055611166565b808061115e9061206f565b915050610fdd565b506004600081548092919061117a906123fa565b91905055507fa14a79af012d1756818f9bd59ccfc9ad185a71df86b9392d9059d9e6faf6d644816040516111ae9190611ce0565b60405180910390a150565b60008054906101000a900473ffffffffffffffffffffffffffffffffffffffff1681565b60086020528060005260406000206000915090508060000160009054906101000a900460ff16908060000160019054906101000a900460ff16905082565b60008054906101000a900473ffffffffffffffffffffffffffffffffffffffff1673ffffffffffffffffffffffffffffffffffffffff163373ffffffffffffffffffffffffffffffffffffffff16146112a9576040517f08c379a00000000000000000000000000000000000000000000000000000000081526004016112a090612132565b60405180910390fd5b600360008154809291906112bc9061206f565b91905055506040518060a001604052806003548152602001848152602001838152602001828152602001600081525060076000600354815260200190815260200160002060008201518160000155602082015181600101908161131f91906125cf565b50604082015181600201908161133591906125cf565b50606082015181600301908161134b91906125cf565b50608082015181600401559050507fe83b2a43e7e82d975c8a0a6d2f045153c869e111136a34d1889ab7b598e396a36003548460405161138c9291906126a1565b60405180910390a1505050565b600080600860008473ffffffffffffffffffffffffffffffffffffffff1673ffffffffffffffffffffffffffffffffffffffff16815260200190815260200160002060000160009054906101000a900460ff16600860008573ffffffffffffffffffffffffffffffffffffffff1673ffffffffffffffffffffffffffffffffffffffff16815260200190815260200160002060000160019054906101000a900460ff1691509150915091565b60008054906101000a900473ffffffffffffffffffffffffffffffffffffffff1673ffffffffffffffffffffffffffffffffffffffff163373ffffffffffffffffffffffffffffffffffffffff16146114d3576040517f08c379a00000000000000000000000000000000000000000000000000000000081526004016114ca90612132565b60405180910390fd5b60008060146101000a81548160ff021916908315150217905550426002819055507f81eb7415440ff8e6c8e92606fd3b0e5e6a5c99ea90cdb63b41aec54e897312b36002546040516115259190611b43565b60405180910390a1565b606060068054806020026020016040519081016040528092919081815260200182805480156115b357602002820191906000526020600020905b8160009054906101000a900473ffffffffffffffffffffffffffffffffffffffff1673ffffffffffffffffffffffffffffffffffffffff1681526020019060010190808311611569575b5050505050905090565b600681815481106115cd57600080fd5b906000526020600020016000915054906101000a900473ffffffffffffffffffffffffffffffffffffffff1681565b60008054906101000a900473ffffffffffffffffffffffffffffffffffffffff1673ffffffffffffffffffffffffffffffffffffffff163373ffffffffffffffffffffffffffffffffffffffff161461168a576040517f08c379a000000000000000000000000000000000000000000000000000000000815260040161168190612132565b60405180910390fd5b600860008273ffffffffffffffffffffffffffffffffffffffff1673ffffffffffffffffffffffffffffffffffffffff16815260200190815260200160002060000160009054906101000a900460ff161561171a576040517f08c379a00000000000000000000000000000000000000000000000000000000081526004016117119061271d565b60405180910390fd5b6001600860008373ffffffffffffffffffffffffffffffffffffffff1673ffffffffffffffffffffffffffffffffffffffff16815260200190815260200160002060000160006101000a81548160ff0219169083151502179055506006819080600181540180825580915050600190039060005260206000200160009091909190916101000a81548173ffffffffffffffffffffffffffffffffffffffff021916908373ffffffffffffffffffffffffffffffffffffffff160217905550600460008154809291906117eb9061206f565b91905055507fa636f4a11e2d3ba7f89d042ecb0a6b886716e98cd49d8fd876ee0f73bced42b88160405161181f9190611ce0565b60405180910390a150565b6040518060a0016040528060008152602001606081526020016060815260200160608152602001600081525090565b5080546118659061200f565b6000825580601f106118775750611896565b601f0160209004906000526020600020908101906118959190611899565b5b50565b5b808211156118b257600081600090555060010161189a565b5090565b600081519050919050565b600082825260208201905092915050565b6000819050602082019050919050565b6000819050919050565b6118f5816118e2565b82525050565b600081519050919050565b600082825260208201905092915050565b60005b8381101561193557808201518184015260208101905061191a565b60008484015250505050565b6000601f19601f8301169050919050565b600061195d826118fb565b6119678185611906565b9350611977818560208601611917565b61198081611941565b840191505092915050565b600060a0830160008301516119a360008601826118ec565b50602083015184820360208601526119bb8282611952565b915050604083015184820360408601526119d58282611952565b915050606083015184820360608601526119ef8282611952565b9150506080830151611a0460808601826118ec565b508091505092915050565b6000611a1b838361198b565b905092915050565b6000602082019050919050565b6000611a3b826118b6565b611a4581856118c1565b935083602082028501611a57856118d2565b8060005b85811015611a935784840389528151611a748582611a0f565b9450611a7f83611a23565b925060208a01995050600181019050611a5b565b50829750879550505050505092915050565b60006020820190508181036000830152611abf8184611a30565b905092915050565b6000604051905090565b600080fd5b600080fd5b611ae4816118e2565b8114611aef57600080fd5b50565b600081359050611b0181611adb565b92915050565b600060208284031215611b1d57611b1c611ad1565b5b6000611b2b84828501611af2565b91505092915050565b611b3d816118e2565b82525050565b6000602082019050611b586000830184611b34565b92915050565b600082825260208201905092915050565b6000611b7a826118fb565b611b848185611b5e565b9350611b94818560208601611917565b611b9d81611941565b840191505092915050565b600060a082019050611bbd6000830188611b34565b8181036020830152611bcf8187611b6f565b90508181036040830152611be38186611b6f565b90508181036060830152611bf78185611b6f565b9050611c066080830184611b34565b9695505050505050565b60008115159050919050565b611c2581611c10565b82525050565b6000602082019050611c406000830184611c1c565b92915050565b600073ffffffffffffffffffffffffffffffffffffffff82169050919050565b6000611c7182611c46565b9050919050565b611c8181611c66565b8114611c8c57600080fd5b50565b600081359050611c9e81611c78565b92915050565b600060208284031215611cba57611cb9611ad1565b5b6000611cc884828501611c8f565b91505092915050565b611cda81611c66565b82525050565b6000602082019050611cf56000830184611cd1565b92915050565b6000604082019050611d106000830185611c1c565b611d1d6020830184611c1c565b9392505050565b600080fd5b600080fd5b7f4e487b7100000000000000000000000000000000000000000000000000000000600052604160045260246000fd5b611d6682611941565b810181811067ffffffffffffffff82111715611d8557611d84611d2e565b5b80604052505050565b6000611d98611ac7565b9050611da48282611d5d565b919050565b600067ffffffffffffffff821115611dc457611dc3611d2e565b5b611dcd82611941565b9050602081019050919050565b82818337600083830152505050565b6000611dfc611df784611da9565b611d8e565b905082815260208101848484011115611e1857611e17611d29565b5b611e23848285611dda565b509392505050565b600082601f830112611e4057611e3f611d24565b5b8135611e50848260208601611de9565b91505092915050565b600080600060608486031215611e7257611e71611ad1565b5b600084013567ffffffffffffffff811115611e9057611e8f611ad6565b5b611e9c86828701611e2b565b935050602084013567ffffffffffffffff811115611ebd57611ebc611ad6565b5b611ec986828701611e2b565b925050604084013567ffffffffffffffff811115611eea57611ee9611ad6565b5b611ef686828701611e2b565b9150509250925092565b600081519050919050565b600082825260208201905092915050565b6000819050602082019050919050565b611f3581611c66565b82525050565b6000611f478383611f2c565b60208301905092915050565b6000602082019050919050565b6000611f6b82611f00565b611f758185611f0b565b9350611f8083611f1c565b8060005b83811015611fb1578151611f988882611f3b565b9750611fa383611f53565b925050600181019050611f84565b5085935050505092915050565b60006020820190508181036000830152611fd88184611f60565b905092915050565b7f4e487b7100000000000000000000000000000000000000000000000000000000600052602260045260246000fd5b6000600282049050600182168061202757607f821691505b60208210810361203a57612039611fe0565b5b50919050565b7f4e487b7100000000000000000000000000000000000000000000000000000000600052601160045260246000fd5b600061207a826118e2565b91507fffffffffffffffffffffffffffffffffffffffffffffffffffffffffffffffff82036120ac576120ab612040565b5b600182019050919050565b7f4e487b7100000000000000000000000000000000000000000000000000000000600052603260045260246000fd5b7f4f6e6c792061646d696e20616c6c6f7765640000000000000000000000000000600082015250565b600061211c601283611b5e565b9150612127826120e6565b602082019050919050565b6000602082019050818103600083015261214b8161210f565b9050919050565b7f43616e646964617465206e6f7420666f756e6400000000000000000000000000600082015250565b6000612188601383611b5e565b915061219382612152565b602082019050919050565b600060208201905081810360008301526121b78161217b565b9050919050565b7f566f74696e67206973206e6f7420616374697665000000000000000000000000600082015250565b60006121f4601483611b5e565b91506121ff826121be565b602082019050919050565b60006020820190508181036000830152612223816121e7565b9050919050565b7f4e6f742072656769737465726564000000000000000000000000000000000000600082015250565b6000612260600e83611b5e565b915061226b8261222a565b602082019050919050565b6000602082019050818103600083015261228f81612253565b9050919050565b7f416c726561647920766f74656400000000000000000000000000000000000000600082015250565b60006122cc600d83611b5e565b91506122d782612296565b602082019050919050565b600060208201905081810360008301526122fb816122bf565b9050919050565b60006040820190506123176000830185611cd1565b6123246020830184611b34565b9392505050565b7f566f746572206e6f742072656769737465726564000000000000000000000000600082015250565b6000612361601483611b5e565b915061236c8261232b565b602082019050919050565b6000602082019050818103600083015261239081612354565b9050919050565b60006123a2826118e2565b91506123ad836118e2565b92508282039050818111156123c5576123c4612040565b5b92915050565b7f4e487b7100000000000000000000000000000000000000000000000000000000600052603160045260246000fd5b6000612405826118e2565b91506000820361241857612417612040565b5b600182039050919050565b60008190508160005260206000209050919050565b60006020601f8301049050919050565b600082821b905092915050565b6000600883026124857fffffffffffffffffffffffffffffffffffffffffffffffffffffffffffffffff82612448565b61248f8683612448565b95508019841693508086168417925050509392505050565b6000819050919050565b60006124cc6124c76124c2846118e2565b6124a7565b6118e2565b9050919050565b6000819050919050565b6124e6836124b1565b6124fa6124f2826124d3565b848454612455565b825550505050565b600090565b61250f612502565b61251a8184846124dd565b505050565b5b8181101561253e57612533600082612507565b600181019050612520565b5050565b601f8211156125835761255481612423565b61255d84612438565b8101602085101561256c578190505b61258061257885612438565b83018261251f565b50505b505050565b600082821c905092915050565b60006125a660001984600802612588565b1980831691505092915050565b60006125bf8383612595565b9150826002028217905092915050565b6125d8826118fb565b67ffffffffffffffff8111156125f1576125f0611d2e565b5b6125fb825461200f565b612606828285612542565b600060209050601f8311600181146126395760008415612627578287015190505b61263185826125b3565b865550612699565b601f19841661264786612423565b60005b8281101561266f5784890151825560018201915060208501945060208101905061264a565b8683101561268c5784890151612688601f891682612595565b8355505b6001600288020188555050505b505050505050565b60006040820190506126b66000830185611b34565b81810360208301526126c88184611b6f565b90509392505050565b7f566f74657220616c726561647920726567697374657265640000000000000000600082015250565b6000612707601883611b5e565b9150612712826126d1565b602082019050919050565b60006020820190508181036000830152612736816126fa565b905091905056fea2646970667358221220ad6b020d886ac2f20dc16001269ba1ea1a636293a2b8b6288461aed929d9b02964736f6c63430008130033",
  "linkReferences": {},
  "deployedLinkReferences": {}
}